{
  "_format": "hh3-artifact-1",
  "contractName": "DeviceRegistry",
  "sourceName": "contracts/DeviceRegistry.sol",
  "abi": [
    {
      "anonymous": false,
      "inputs": [
        {
          "indexed": true,
          "internalType": "bytes32",
          "name": "idHash",
          "type": "bytes32"
        },
        {
          "indexed": false,
          "internalType": "bool",
          "name": "success",
          "type": "bool"
        },
        {
          "indexed": false,
          "internalType": "string",
          "name": "reason",
          "type": "string"
        }
      ],
      "name": "AuthAttempt",
      "type": "event"
    },
    {
      "anonymous": false,
      "inputs": [
        {
          "indexed": true,
          "internalType": "bytes32",
          "name": "idHash",
          "type": "bytes32"
        },
        {
          "indexed": false,
          "internalType": "uint256",
          "name": "pubKeyHash",
          "type": "uint256"
        }
      ],
      "name": "DeviceRegistered",
      "type": "event"
    },
    {
      "anonymous": false,
      "inputs": [
        {
          "indexed": true,
          "internalType": "bytes32",
          "name": "idHash",
          "type": "bytes32"
        },
        {
          "indexed": false,
          "internalType": "enum DeviceRegistry.Status",
          "name": "status",
          "type": "uint8"
        }
      ],
      "name": "DeviceStatusUpdated",
      "type": "event"
    },
    {
      "inputs": [
        {
          "internalType": "bytes32",
          "name": "",
          "type": "bytes32"
        }
      ],
      "name": "devices",
      "outputs": [
        {
          "internalType": "bytes32",
          "name": "idHash",
          "type": "bytes32"
        },
        {
          "internalType": "uint256",
          "name": "pubKeyHash",
          "type": "uint256"
        },
        {
          "internalType": "enum DeviceRegistry.Status",
          "name": "status",
          "type": "uint8"
        },
        {
          "internalType": "uint256",
          "name": "registeredAt",
          "type": "uint256"
        },
        {
          "internalType": "uint256",
          "name": "lastSeen",
          "type": "uint256"
        },
        {
          "internalType": "uint256",
          "name": "reputation",
          "type": "uint256"
        }
      ],
      "stateMutability": "view",
      "type": "function"
    },
    {
      "inputs": [
        {
          "internalType": "bytes32",
          "name": "_idHash",
          "type": "bytes32"
        }
      ],
      "name": "getDevice",
      "outputs": [
        {
          "components": [
            {
              "internalType": "bytes32",
              "name": "idHash",
              "type": "bytes32"
            },
            {
              "internalType": "uint256",
              "name": "pubKeyHash",
              "type": "uint256"
            },
            {
              "internalType": "enum DeviceRegistry.Status",
              "name": "status",
              "type": "uint8"
            },
            {
              "internalType": "uint256",
              "name": "registeredAt",
              "type": "uint256"
            },
            {
              "internalType": "uint256",
              "name": "lastSeen",
              "type": "uint256"
            },
            {
              "internalType": "uint256",
              "name": "reputation",
              "type": "uint256"
            }
          ],
          "internalType": "struct DeviceRegistry.Device",
          "name": "",
          "type": "tuple"
        }
      ],
      "stateMutability": "view",
      "type": "function"
    },
    {
      "inputs": [
        {
          "internalType": "bytes32",
          "name": "_idHash",
          "type": "bytes32"
        },
        {
          "internalType": "bool",
          "name": "_success",
          "type": "bool"
        },
        {
          "internalType": "string",
          "name": "_reason",
          "type": "string"
        }
      ],
      "name": "logAuth",
      "outputs": [],
      "stateMutability": "nonpayable",
      "type": "function"
    },
    {
      "inputs": [
        {
          "internalType": "bytes32",
          "name": "_idHash",
          "type": "bytes32"
        },
        {
          "internalType": "uint256",
          "name": "_pubKeyHash",
          "type": "uint256"
        }
      ],
      "name": "registerDevice",
      "outputs": [],
      "stateMutability": "nonpayable",
      "type": "function"
    },
    {
      "inputs": [
        {
          "internalType": "bytes32",
          "name": "_idHash",
          "type": "bytes32"
        },
        {
          "internalType": "enum DeviceRegistry.Status",
          "name": "_status",
          "type": "uint8"
        }
      ],
      "name": "updateStatus",
      "outputs": [],
      "stateMutability": "nonpayable",
      "type": "function"
    }
  ],
  "bytecode": "0x6080604052348015600e575f5ffd5b50610b848061001c5f395ff3fe608060405234801561000f575f5ffd5b5060043610610055575f3560e01c8063054372ed1461005957806349e4cfdd146100755780635fc119cd146100915780636a7f745e146100ad578063c5c400de146100dd575b5f5ffd5b610073600480360381019061006e9190610588565b610112565b005b61008f600480360381019061008a919061065c565b6101dd565b005b6100ab60048036038101906100a69190610700565b6102cc565b005b6100c760048036038101906100c2919061073e565b610410565b6040516100d49190610873565b60405180910390f35b6100f760048036038101906100f2919061073e565b6104a5565b604051610109969594939291906108b9565b60405180910390f35b5f5f5f8481526020019081526020015f206003015403610167576040517f08c379a000000000000000000000000000000000000000000000000000000000815260040161015e90610972565b60405180910390fd5b805f5f8481526020019081526020015f206002015f6101000a81548160ff0219169083600281111561019c5761019b610787565b5b0217905550817f9d07694f503be67bbca28ed52133f9aa871af283bba2f4cf52a81de2f0361c75826040516101d19190610990565b60405180910390a25050565b821561024557425f5f8681526020019081526020015f206004018190555060645f5f8681526020019081526020015f20600501541015610240575f5f8581526020019081526020015f206005015f81548092919061023a906109d6565b91905055505b61028a565b5f5f5f8681526020019081526020015f20600501541115610289575f5f8581526020019081526020015f206005015f81548092919061028390610a1d565b91905055505b5b837f48e305ad87a2b2b8397265ad0e3af3d0b7d6081dcb169c9735f4cd4c04fc82208484846040516102be93929190610a9d565b60405180910390a250505050565b5f5f5f8481526020019081526020015f206003015414610321576040517f08c379a000000000000000000000000000000000000000000000000000000000815260040161031890610b17565b60405180910390fd5b6040518060c001604052808381526020018281526020016001600281111561034c5761034b610787565b5b815260200142815260200142815260200160648152505f5f8481526020019081526020015f205f820151815f0155602082015181600101556040820151816002015f6101000a81548160ff021916908360028111156103ae576103ad610787565b5b0217905550606082015181600301556080820151816004015560a08201518160050155905050817fba5fcaadd4023605e61fd76e5b175ac4326334fa3918f76cdc05974c8968a287826040516104049190610b35565b60405180910390a25050565b6104186104e8565b5f5f8381526020019081526020015f206040518060c00160405290815f820154815260200160018201548152602001600282015f9054906101000a900460ff16600281111561046a57610469610787565b5b600281111561047c5761047b610787565b5b815260200160038201548152602001600482015481526020016005820154815250509050919050565b5f602052805f5260405f205f91509050805f015490806001015490806002015f9054906101000a900460ff16908060030154908060040154908060050154905086565b6040518060c001604052805f81526020015f81526020015f600281111561051257610511610787565b5b81526020015f81526020015f81526020015f81525090565b5f5ffd5b5f5ffd5b5f819050919050565b61054481610532565b811461054e575f5ffd5b50565b5f8135905061055f8161053b565b92915050565b60038110610571575f5ffd5b50565b5f8135905061058281610565565b92915050565b5f5f6040838503121561059e5761059d61052a565b5b5f6105ab85828601610551565b92505060206105bc85828601610574565b9150509250929050565b5f8115159050919050565b6105da816105c6565b81146105e4575f5ffd5b50565b5f813590506105f5816105d1565b92915050565b5f5ffd5b5f5ffd5b5f5ffd5b5f5f83601f84011261061c5761061b6105fb565b5b8235905067ffffffffffffffff811115610639576106386105ff565b5b60208301915083600182028301111561065557610654610603565b5b9250929050565b5f5f5f5f606085870312156106745761067361052a565b5b5f61068187828801610551565b9450506020610692878288016105e7565b935050604085013567ffffffffffffffff8111156106b3576106b261052e565b5b6106bf87828801610607565b925092505092959194509250565b5f819050919050565b6106df816106cd565b81146106e9575f5ffd5b50565b5f813590506106fa816106d6565b92915050565b5f5f604083850312156107165761071561052a565b5b5f61072385828601610551565b9250506020610734858286016106ec565b9150509250929050565b5f602082840312156107535761075261052a565b5b5f61076084828501610551565b91505092915050565b61077281610532565b82525050565b610781816106cd565b82525050565b7f4e487b71000000000000000000000000000000000000000000000000000000005f52602160045260245ffd5b600381106107c5576107c4610787565b5b50565b5f8190506107d5826107b4565b919050565b5f6107e4826107c8565b9050919050565b6107f4816107da565b82525050565b60c082015f82015161080e5f850182610769565b5060208201516108216020850182610778565b50604082015161083460408501826107eb565b5060608201516108476060850182610778565b50608082015161085a6080850182610778565b5060a082015161086d60a0850182610778565b50505050565b5f60c0820190506108865f8301846107fa565b92915050565b61089581610532565b82525050565b6108a4816106cd565b82525050565b6108b3816107da565b82525050565b5f60c0820190506108cc5f83018961088c565b6108d9602083018861089b565b6108e660408301876108aa565b6108f3606083018661089b565b610900608083018561089b565b61090d60a083018461089b565b979650505050505050565b5f82825260208201905092915050565b7f446576696365206e6f7420666f756e64000000000000000000000000000000005f82015250565b5f61095c601083610918565b915061096782610928565b602082019050919050565b5f6020820190508181035f83015261098981610950565b9050919050565b5f6020820190506109a35f8301846108aa565b92915050565b7f4e487b71000000000000000000000000000000000000000000000000000000005f52601160045260245ffd5b5f6109e0826106cd565b91507fffffffffffffffffffffffffffffffffffffffffffffffffffffffffffffffff8203610a1257610a116109a9565b5b600182019050919050565b5f610a27826106cd565b91505f8203610a3957610a386109a9565b5b600182039050919050565b610a4d816105c6565b82525050565b828183375f83830152505050565b5f601f19601f8301169050919050565b5f610a7c8385610918565b9350610a89838584610a53565b610a9283610a61565b840190509392505050565b5f604082019050610ab05f830186610a44565b8181036020830152610ac3818486610a71565b9050949350505050565b7f44657669636520616c72656164792072656769737465726564000000000000005f82015250565b5f610b01601983610918565b9150610b0c82610acd565b602082019050919050565b5f6020820190508181035f830152610b2e81610af5565b9050919050565b5f602082019050610b485f83018461089b565b9291505056fea26469706673582212201d12c59013aad2fe1f86c78b8b111c1a9fef7e9325d13c21fad7d92ec8e2718964736f6c634300081c0033",
  "linkReferences": {},
  "deployedLinkReferences": {},
  "immutableReferences": {},
  "inputSourceName": "project/contracts/DeviceRegistry.sol",
  "buildInfoId": "solc-0_8_28-c27ade13529a67a4441a38a389dcb14c4b4391d1"
}