{"project/contracts/DeviceRegistry.sol":{"DeviceRegistry":{"abi":[{"anonymous":false,"inputs":[{"indexed":true,"internalType":"bytes32","name":"idHash","type":"bytes32"},{"indexed":false,"internalType":"bool","name":"success","type":"bool"},{"indexed":false,"internalType":"string","name":"reason","type":"string"}],"name":"AuthAttempt","type":"event"},{"anonymous":false,"inputs":[{"indexed":true,"internalType":"bytes32","name":"idHash","type":"bytes32"},{"indexed":false,"internalType":"uint256","name":"pubKeyHash","type":"uint256"}],"name":"DeviceRegistered","type":"event"},{"anonymous":false,"inputs":[{"indexed":true,"internalType":"bytes32","name":"idHash","type":"bytes32"},{"indexed":false,"internalType":"enum DeviceRegistry.Status","name":"status","type":"uint8"}],"name":"DeviceStatusUpdated","type":"event"},{"inputs":[{"internalType":"bytes32","name":"","type":"bytes32"}],"name":"devices","outputs":[{"internalType":"bytes32","name":"idHash","type":"bytes32"},{"internalType":"uint256","name":"pubKeyHash","type":"uint256"},{"internalType":"enum DeviceRegistry.Status","name":"status","type":"uint8"},{"internalType":"uint256","name":"registeredAt","type":"uint256"},{"internalType":"uint256","name":"lastSeen","type":"uint256"},{"internalType":"uint256","name":"reputation","type":"uint256"}],"stateMutability":"view","type":"function"},{"inputs":[{"internalType":"bytes32","name":"_idHash","type":"bytes32"}],"name":"getDevice","outputs":[{"components":[{"internalType":"bytes32","name":"idHash","type":"bytes32"},{"internalType":"uint256","name":"pubKeyHash","type":"uint256"},{"internalType":"enum DeviceRegistry.Status","name":"status","type":"uint8"},{"internalType":"uint256","name":"registeredAt","type":"uint256"},{"internalType":"uint256","name":"lastSeen","type":"uint256"},{"internalType":"uint256","name":"reputation","type":"uint256"}],"internalType":"struct DeviceRegistry.Device","name":"","type":"tuple"}],"stateMutability":"view","type":"function"},{"inputs":[{"internalType":"bytes32","name":"_idHash","type":"bytes32"},{"internalType":"bool","name":"_success","type":"bool"},{"internalType":"string","name":"_reason","type":"string"}],"name":"logAuth","outputs":[],"stateMutability":"nonpayable","type":"function"},{"inputs":[{"internalType":"bytes32","name":"_idHash","type":"bytes32"},{"internalType":"uint256","name":"_pubKeyHash","type":"uint256"}],"name":"registerDevice","outputs":[],"stateMutability":"nonpayable","type":"function"},{"inputs":[{"internalType":"bytes32","name":"_idHash","type":"bytes32"},{"internalType":"enum DeviceRegistry.Status","name":"_status","type":"uint8"}],"name":"updateStatus","outputs":[],"stateMutability":"nonpayable","type":"function"}],"evm":{"bytecode":{"linkReferences":{},"object":"6080604052348015600e575f5ffd5b50610b848061001c5f395ff3fe608060405234801561000f575f5ffd5b5060043610610055575f3560e01c8063054372ed1461005957806349e4cfdd146100755780635fc119cd146100915780636a7f745e146100ad578063c5c400de146100dd575b5f5ffd5b610073600480360381019061006e9190610588565b610112565b005b61008f600480360381019061008a919061065c565b6101dd565b005b6100ab60048036038101906100a69190610700565b6102cc565b005b6100c760048036038101906100c2919061073e565b610410565b6040516100d49190610873565b60405180910390f35b6100f760048036038101906100f2919061073e565b6104a5565b604051610109969594939291906108b9565b60405180910390f35b5f5f5f8481526020019081526020015f206003015403610167576040517f08c379a000000000000000000000000000000000000000000000000000000000815260040161015e90610972565b60405180910390fd5b805f5f8481526020019081526020015f206002015f6101000a81548160ff0219169083600281111561019c5761019b610787565b5b0217905550817f9d07694f503be67bbca28ed52133f9aa871af283bba2f4cf52a81de2f0361c75826040516101d19190610990565b60405180910390a25050565b821561024557425f5f8681526020019081526020015f206004018190555060645f5f8681526020019081526020015f20600501541015610240575f5f8581526020019081526020015f206005015f81548092919061023a906109d6565b91905055505b61028a565b5f5f5f8681526020019081526020015f20600501541115610289575f5f8581526020019081526020015f206005015f81548092919061028390610a1d565b91905055505b5b837f48e305ad87a2b2b8397265ad0e3af3d0b7d6081dcb169c9735f4cd4c04fc82208484846040516102be93929190610a9d565b60405180910390a250505050565b5f5f5f8481526020019081526020015f206003015414610321576040517f08c379a000000000000000000000000000000000000000000000000000000000815260040161031890610b17565b60405180910390fd5b6040518060c001604052808381526020018281526020016001600281111561034c5761034b610787565b5b815260200142815260200142815260200160648152505f5f8481526020019081526020015f205f820151815f0155602082015181600101556040820151816002015f6101000a81548160ff021916908360028111156103ae576103ad610787565b5b0217905550606082015181600301556080820151816004015560a08201518160050155905050817fba5fcaadd4023605e61fd76e5b175ac4326334fa3918f76cdc05974c8968a287826040516104049190610b35565b60405180910390a25050565b6104186104e8565b5f5f8381526020019081526020015f206040518060c00160405290815f820154815260200160018201548152602001600282015f9054906101000a900460ff16600281111561046a57610469610787565b5b600281111561047c5761047b610787565b5b815260200160038201548152602001600482015481526020016005820154815250509050919050565b5f602052805f5260405f205f91509050805f015490806001015490806002015f9054906101000a900460ff16908060030154908060040154908060050154905086565b6040518060c001604052805f81526020015f81526020015f600281111561051257610511610787565b5b81526020015f81526020015f81526020015f81525090565b5f5ffd5b5f5ffd5b5f819050919050565b61054481610532565b811461054e575f5ffd5b50565b5f8135905061055f8161053b565b92915050565b60038110610571575f5ffd5b50565b5f8135905061058281610565565b92915050565b5f5f6040838503121561059e5761059d61052a565b5b5f6105ab85828601610551565b92505060206105bc85828601610574565b9150509250929050565b5f8115159050919050565b6105da816105c6565b81146105e4575f5ffd5b50565b5f813590506105f5816105d1565b92915050565b5f5ffd5b5f5ffd5b5f5ffd5b5f5f83601f84011261061c5761061b6105fb565b5b8235905067ffffffffffffffff811115610639576106386105ff565b5b60208301915083600182028301111561065557610654610603565b5b9250929050565b5f5f5f5f606085870312156106745761067361052a565b5b5f61068187828801610551565b9450506020610692878288016105e7565b935050604085013567ffffffffffffffff8111156106b3576106b261052e565b5b6106bf87828801610607565b925092505092959194509250565b5f819050919050565b6106df816106cd565b81146106e9575f5ffd5b50565b5f813590506106fa816106d6565b92915050565b5f5f604083850312156107165761071561052a565b5b5f61072385828601610551565b9250506020610734858286016106ec565b9150509250929050565b5f602082840312156107535761075261052a565b5b5f61076084828501610551565b91505092915050565b61077281610532565b82525050565b610781816106cd565b82525050565b7f4e487b71000000000000000000000000000000000000000000000000000000005f52602160045260245ffd5b600381106107c5576107c4610787565b5b50565b5f8190506107d5826107b4565b919050565b5f6107e4826107c8565b9050919050565b6107f4816107da565b82525050565b60c082015f82015161080e5f850182610769565b5060208201516108216020850182610778565b50604082015161083460408501826107eb565b5060608201516108476060850182610778565b50608082015161085a6080850182610778565b5060a082015161086d60a0850182610778565b50505050565b5f60c0820190506108865f8301846107fa565b92915050565b61089581610532565b82525050565b6108a4816106cd565b82525050565b6108b3816107da565b82525050565b5f60c0820190506108cc5f83018961088c565b6108d9602083018861089b565b6108e660408301876108aa565b6108f3606083018661089b565b610900608083018561089b565b61090d60a083018461089b565b979650505050505050565b5f82825260208201905092915050565b7f446576696365206e6f7420666f756e64000000000000000000000000000000005f82015250565b5f61095c601083610918565b915061096782610928565b602082019050919050565b5f6020820190508181035f83015261098981610950565b9050919050565b5f6020820190506109a35f8301846108aa565b92915050565b7f4e487b71000000000000000000000000000000000000000000000000000000005f52601160045260245ffd5b5f6109e0826106cd565b91507fffffffffffffffffffffffffffffffffffffffffffffffffffffffffffffffff8203610a1257610a116109a9565b5b600182019050919050565b5f610a27826106cd565b91505f8203610a3957610a386109a9565b5b600182039050919050565b610a4d816105c6565b82525050565b828183375f83830152505050565b5f601f19601f8301169050919050565b5f610a7c8385610918565b9350610a89838584610a53565b610a9283610a61565b840190509392505050565b5f604082019050610ab05f830186610a44565b8181036020830152610ac3818486610a71565b9050949350505050565b7f44657669636520616c72656164792072656769737465726564000000000000005f82015250565b5f610b01601983610918565b9150610b0c82610acd565b602082019050919050565b5f6020820190508181035f830152610b2e81610af5565b9050919050565b5f602082019050610b485f83018461089b565b9291505056fea26469706673582212201d12c59013aad2fe1f86c78b8b111c1a9fef7e9325d13c21fad7d92ec8e2718964736f6c634300081c0033","opcodes":"PUSH1 0x80 PUSH1 0x40 MSTORE CALLVALUE DUP1 ISZERO PUSH1 0xE JUMPI PUSH0 PUSH0 REVERT JUMPDEST POP PUSH2 0xB84 DUP1 PUSH2 0x1C PUSH0 CODECOPY PUSH0 RETURN INVALID PUSH1 0x80 PUSH1 0x40 MSTORE CALLVALUE DUP1 ISZERO PUSH2 0xF JUMPI PUSH0 PUSH0 REVERT JUMPDEST POP PUSH1 0x4 CALLDATASIZE LT PUSH2 0x55 JUMPI PUSH0 CALLDATALOAD PUSH1 0xE0 SHR DUP1 PUSH4 0x54372ED EQ PUSH2 0x59 JUMPI DUP1 PUSH4 0x49E4CFDD EQ PUSH2 0x75 JUMPI DUP1 PUSH4 0x5FC119CD EQ PUSH2 0x91 JUMPI DUP1 PUSH4 0x6A7F745E EQ PUSH2 0xAD JUMPI DUP1 PUSH4 0xC5C400DE EQ PUSH2 0xDD JUMPI JUMPDEST PUSH0 PUSH0 REVERT JUMPDEST PUSH2 0x73 PUSH1 0x4 DUP1 CALLDATASIZE SUB DUP2 ADD SWAP1 PUSH2 0x6E SWAP2 SWAP1 PUSH2 0x588 JUMP JUMPDEST PUSH2 0x112 JUMP JUMPDEST STOP JUMPDEST PUSH2 0x8F PUSH1 0x4 DUP1 CALLDATASIZE SUB DUP2 ADD SWAP1 PUSH2 0x8A SWAP2 SWAP1 PUSH2 0x65C JUMP JUMPDEST PUSH2 0x1DD JUMP JUMPDEST STOP JUMPDEST PUSH2 0xAB PUSH1 0x4 DUP1 CALLDATASIZE SUB DUP2 ADD SWAP1 PUSH2 0xA6 SWAP2 SWAP1 PUSH2 0x700 JUMP JUMPDEST PUSH2 0x2CC JUMP JUMPDEST STOP JUMPDEST PUSH2 0xC7 PUSH1 0x4 DUP1 CALLDATASIZE SUB DUP2 ADD SWAP1 PUSH2 0xC2 SWAP2 SWAP1 PUSH2 0x73E JUMP JUMPDEST PUSH2 0x410 JUMP JUMPDEST PUSH1 0x40 MLOAD PUSH2 0xD4 SWAP2 SWAP1 PUSH2 0x873 JUMP JUMPDEST PUSH1 0x40 MLOAD DUP1 SWAP2 SUB SWAP1 RETURN JUMPDEST PUSH2 0xF7 PUSH1 0x4 DUP1 CALLDATASIZE SUB DUP2 ADD SWAP1 PUSH2 0xF2 SWAP2 SWAP1 PUSH2 0x73E JUMP JUMPDEST PUSH2 0x4A5 JUMP JUMPDEST PUSH1 0x40 MLOAD PUSH2 0x109 SWAP7 SWAP6 SWAP5 SWAP4 SWAP3 SWAP2 SWAP1 PUSH2 0x8B9 JUMP JUMPDEST PUSH1 0x40 MLOAD DUP1 SWAP2 SUB SWAP1 RETURN JUMPDEST PUSH0 PUSH0 PUSH0 DUP5 DUP2 MSTORE PUSH1 0x20 ADD SWAP1 DUP2 MSTORE PUSH1 0x20 ADD PUSH0 KECCAK256 PUSH1 0x3 ADD SLOAD SUB PUSH2 0x167 JUMPI PUSH1 0x40 MLOAD PUSH32 0x8C379A000000000000000000000000000000000000000000000000000000000 DUP2 MSTORE PUSH1 0x4 ADD PUSH2 0x15E SWAP1 PUSH2 0x972 JUMP JUMPDEST PUSH1 0x40 MLOAD DUP1 SWAP2 SUB SWAP1 REVERT JUMPDEST DUP1 PUSH0 PUSH0 DUP5 DUP2 MSTORE PUSH1 0x20 ADD SWAP1 DUP2 MSTORE PUSH1 0x20 ADD PUSH0 KECCAK256 PUSH1 0x2 ADD PUSH0 PUSH2 0x100 EXP DUP2 SLOAD DUP2 PUSH1 0xFF MUL NOT AND SWAP1 DUP4 PUSH1 0x2 DUP2 GT ISZERO PUSH2 0x19C JUMPI PUSH2 0x19B PUSH2 0x787 JUMP JUMPDEST JUMPDEST MUL OR SWAP1 SSTORE POP DUP2 PUSH32 0x9D07694F503BE67BBCA28ED52133F9AA871AF283BBA2F4CF52A81DE2F0361C75 DUP3 PUSH1 0x40 MLOAD PUSH2 0x1D1 SWAP2 SWAP1 PUSH2 0x990 JUMP JUMPDEST PUSH1 0x40 MLOAD DUP1 SWAP2 SUB SWAP1 LOG2 POP POP JUMP JUMPDEST DUP3 ISZERO PUSH2 0x245 JUMPI TIMESTAMP PUSH0 PUSH0 DUP7 DUP2 MSTORE PUSH1 0x20 ADD SWAP1 DUP2 MSTORE PUSH1 0x20 ADD PUSH0 KECCAK256 PUSH1 0x4 ADD DUP2 SWAP1 SSTORE POP PUSH1 0x64 PUSH0 PUSH0 DUP7 DUP2 MSTORE PUSH1 0x20 ADD SWAP1 DUP2 MSTORE PUSH1 0x20 ADD PUSH0 KECCAK256 PUSH1 0x5 ADD SLOAD LT ISZERO PUSH2 0x240 JUMPI PUSH0 PUSH0 DUP6 DUP2 MSTORE PUSH1 0x20 ADD SWAP1 DUP2 MSTORE PUSH1 0x20 ADD PUSH0 KECCAK256 PUSH1 0x5 ADD PUSH0 DUP2 SLOAD DUP1 SWAP3 SWAP2 SWAP1 PUSH2 0x23A SWAP1 PUSH2 0x9D6 JUMP JUMPDEST SWAP2 SWAP1 POP SSTORE POP JUMPDEST PUSH2 0x28A JUMP JUMPDEST PUSH0 PUSH0 PUSH0 DUP7 DUP2 MSTORE PUSH1 0x20 ADD SWAP1 DUP2 MSTORE PUSH1 0x20 ADD PUSH0 KECCAK256 PUSH1 0x5 ADD SLOAD GT ISZERO PUSH2 0x289 JUMPI PUSH0 PUSH0 DUP6 DUP2 MSTORE PUSH1 0x20 ADD SWAP1 DUP2 MSTORE PUSH1 0x20 ADD PUSH0 KECCAK256 PUSH1 0x5 ADD PUSH0 DUP2 SLOAD DUP1 SWAP3 SWAP2 SWAP1 PUSH2 0x283 SWAP1 PUSH2 0xA1D JUMP JUMPDEST SWAP2 SWAP1 POP SSTORE POP JUMPDEST JUMPDEST DUP4 PUSH32 0x48E305AD87A2B2B8397265AD0E3AF3D0B7D6081DCB169C9735F4CD4C04FC8220 DUP5 DUP5 DUP5 PUSH1 0x40 MLOAD PUSH2 0x2BE SWAP4 SWAP3 SWAP2 SWAP1 PUSH2 0xA9D JUMP JUMPDEST PUSH1 0x40 MLOAD DUP1 SWAP2 SUB SWAP1 LOG2 POP POP POP POP JUMP JUMPDEST PUSH0 PUSH0 PUSH0 DUP5 DUP2 MSTORE PUSH1 0x20 ADD SWAP1 DUP2 MSTORE PUSH1 0x20 ADD PUSH0 KECCAK256 PUSH1 0x3 ADD SLOAD EQ PUSH2 0x321 JUMPI PUSH1 0x40 MLOAD PUSH32 0x8C379A000000000000000000000000000000000000000000000000000000000 DUP2 MSTORE PUSH1 0x4 ADD PUSH2 0x318 SWAP1 PUSH2 0xB17 JUMP JUMPDEST PUSH1 0x40 MLOAD DUP1 SWAP2 SUB SWAP1 REVERT JUMPDEST PUSH1 0x40 MLOAD DUP1 PUSH1 0xC0 ADD PUSH1 0x40 MSTORE DUP1 DUP4 DUP2 MSTORE PUSH1 0x20 ADD DUP3 DUP2 MSTORE PUSH1 0x20 ADD PUSH1 0x1 PUSH1 0x2 DUP2 GT ISZERO PUSH2 0x34C JUMPI PUSH2 0x34B PUSH2 0x787 JUMP JUMPDEST JUMPDEST DUP2 MSTORE PUSH1 0x20 ADD TIMESTAMP DUP2 MSTORE PUSH1 0x20 ADD TIMESTAMP DUP2 MSTORE PUSH1 0x20 ADD PUSH1 0x64 DUP2 MSTORE POP PUSH0 PUSH0 DUP5 DUP2 MSTORE PUSH1 0x20 ADD SWAP1 DUP2 MSTORE PUSH1 0x20 ADD PUSH0 KECCAK256 PUSH0 DUP3 ADD MLOAD DUP2 PUSH0 ADD SSTORE PUSH1 0x20 DUP3 ADD MLOAD DUP2 PUSH1 0x1 ADD SSTORE PUSH1 0x40 DUP3 ADD MLOAD DUP2 PUSH1 0x2 ADD PUSH0 PUSH2 0x100 EXP DUP2 SLOAD DUP2 PUSH1 0xFF MUL NOT AND SWAP1 DUP4 PUSH1 0x2 DUP2 GT ISZERO PUSH2 0x3AE JUMPI PUSH2 0x3AD PUSH2 0x787 JUMP JUMPDEST JUMPDEST MUL OR SWAP1 SSTORE POP PUSH1 0x60 DUP3 ADD MLOAD DUP2 PUSH1 0x3 ADD SSTORE PUSH1 0x80 DUP3 ADD MLOAD DUP2 PUSH1 0x4 ADD SSTORE PUSH1 0xA0 DUP3 ADD MLOAD DUP2 PUSH1 0x5 ADD SSTORE SWAP1 POP POP DUP2 PUSH32 0xBA5FCAADD4023605E61FD76E5B175AC4326334FA3918F76CDC05974C8968A287 DUP3 PUSH1 0x40 MLOAD PUSH2 0x404 SWAP2 SWAP1 PUSH2 0xB35 JUMP JUMPDEST PUSH1 0x40 MLOAD DUP1 SWAP2 SUB SWAP1 LOG2 POP POP JUMP JUMPDEST PUSH2 0x418 PUSH2 0x4E8 JUMP JUMPDEST PUSH0 PUSH0 DUP4 DUP2 MSTORE PUSH1 0x20 ADD SWAP1 DUP2 MSTORE PUSH1 0x20 ADD PUSH0 KECCAK256 PUSH1 0x40 MLOAD DUP1 PUSH1 0xC0 ADD PUSH1 0x40 MSTORE SWAP1 DUP2 PUSH0 DUP3 ADD SLOAD DUP2 MSTORE PUSH1 0x20 ADD PUSH1 0x1 DUP3 ADD SLOAD DUP2 MSTORE PUSH1 0x20 ADD PUSH1 0x2 DUP3 ADD PUSH0 SWAP1 SLOAD SWAP1 PUSH2 0x100 EXP SWAP1 DIV PUSH1 0xFF AND PUSH1 0x2 DUP2 GT ISZERO PUSH2 0x46A JUMPI PUSH2 0x469 PUSH2 0x787 JUMP JUMPDEST JUMPDEST PUSH1 0x2 DUP2 GT ISZERO PUSH2 0x47C JUMPI PUSH2 0x47B PUSH2 0x787 JUMP JUMPDEST JUMPDEST DUP2 MSTORE PUSH1 0x20 ADD PUSH1 0x3 DUP3 ADD SLOAD DUP2 MSTORE PUSH1 0x20 ADD PUSH1 0x4 DUP3 ADD SLOAD DUP2 MSTORE PUSH1 0x20 ADD PUSH1 0x5 DUP3 ADD SLOAD DUP2 MSTORE POP POP SWAP1 POP SWAP2 SWAP1 POP JUMP JUMPDEST PUSH0 PUSH1 0x20 MSTORE DUP1 PUSH0 MSTORE PUSH1 0x40 PUSH0 KECCAK256 PUSH0 SWAP2 POP SWAP1 POP DUP1 PUSH0 ADD SLOAD SWAP1 DUP1 PUSH1 0x1 ADD SLOAD SWAP1 DUP1 PUSH1 0x2 ADD PUSH0 SWAP1 SLOAD SWAP1 PUSH2 0x100 EXP SWAP1 DIV PUSH1 0xFF AND SWAP1 DUP1 PUSH1 0x3 ADD SLOAD SWAP1 DUP1 PUSH1 0x4 ADD SLOAD SWAP1 DUP1 PUSH1 0x5 ADD SLOAD SWAP1 POP DUP7 JUMP JUMPDEST PUSH1 0x40 MLOAD DUP1 PUSH1 0xC0 ADD PUSH1 0x40 MSTORE DUP1 PUSH0 DUP2 MSTORE PUSH1 0x20 ADD PUSH0 DUP2 MSTORE PUSH1 0x20 ADD PUSH0 PUSH1 0x2 DUP2 GT ISZERO PUSH2 0x512 JUMPI PUSH2 0x511 PUSH2 0x787 JUMP JUMPDEST JUMPDEST DUP2 MSTORE PUSH1 0x20 ADD PUSH0 DUP2 MSTORE PUSH1 0x20 ADD PUSH0 DUP2 MSTORE PUSH1 0x20 ADD PUSH0 DUP2 MSTORE POP SWAP1 JUMP JUMPDEST PUSH0 PUSH0 REVERT JUMPDEST PUSH0 PUSH0 REVERT JUMPDEST PUSH0 DUP2 SWAP1 POP SWAP2 SWAP1 POP JUMP JUMPDEST PUSH2 0x544 DUP2 PUSH2 0x532 JUMP JUMPDEST DUP2 EQ PUSH2 0x54E JUMPI PUSH0 PUSH0 REVERT JUMPDEST POP JUMP JUMPDEST PUSH0 DUP2 CALLDATALOAD SWAP1 POP PUSH2 0x55F DUP2 PUSH2 0x53B JUMP JUMPDEST SWAP3 SWAP2 POP POP JUMP JUMPDEST PUSH1 0x3 DUP2 LT PUSH2 0x571 JUMPI PUSH0 PUSH0 REVERT JUMPDEST POP JUMP JUMPDEST PUSH0 DUP2 CALLDATALOAD SWAP1 POP PUSH2 0x582 DUP2 PUSH2 0x565 JUMP JUMPDEST SWAP3 SWAP2 POP POP JUMP JUMPDEST PUSH0 PUSH0 PUSH1 0x40 DUP4 DUP6 SUB SLT ISZERO PUSH2 0x59E JUMPI PUSH2 0x59D PUSH2 0x52A JUMP JUMPDEST JUMPDEST PUSH0 PUSH2 0x5AB DUP6 DUP3 DUP7 ADD PUSH2 0x551 JUMP JUMPDEST SWAP3 POP POP PUSH1 0x20 PUSH2 0x5BC DUP6 DUP3 DUP7 ADD PUSH2 0x574 JUMP JUMPDEST SWAP2 POP POP SWAP3 POP SWAP3 SWAP1 POP JUMP JUMPDEST PUSH0 DUP2 ISZERO ISZERO SWAP1 POP SWAP2 SWAP1 POP JUMP JUMPDEST PUSH2 0x5DA DUP2 PUSH2 0x5C6 JUMP JUMPDEST DUP2 EQ PUSH2 0x5E4 JUMPI PUSH0 PUSH0 REVERT JUMPDEST POP JUMP JUMPDEST PUSH0 DUP2 CALLDATALOAD SWAP1 POP PUSH2 0x5F5 DUP2 PUSH2 0x5D1 JUMP JUMPDEST SWAP3 SWAP2 POP POP JUMP JUMPDEST PUSH0 PUSH0 REVERT JUMPDEST PUSH0 PUSH0 REVERT JUMPDEST PUSH0 PUSH0 REVERT JUMPDEST PUSH0 PUSH0 DUP4 PUSH1 0x1F DUP5 ADD SLT PUSH2 0x61C JUMPI PUSH2 0x61B PUSH2 0x5FB JUMP JUMPDEST JUMPDEST DUP3 CALLDATALOAD SWAP1 POP PUSH8 0xFFFFFFFFFFFFFFFF DUP2 GT ISZERO PUSH2 0x639 JUMPI PUSH2 0x638 PUSH2 0x5FF JUMP JUMPDEST JUMPDEST PUSH1 0x20 DUP4 ADD SWAP2 POP DUP4 PUSH1 0x1 DUP3 MUL DUP4 ADD GT ISZERO PUSH2 0x655 JUMPI PUSH2 0x654 PUSH2 0x603 JUMP JUMPDEST JUMPDEST SWAP3 POP SWAP3 SWAP1 POP JUMP JUMPDEST PUSH0 PUSH0 PUSH0 PUSH0 PUSH1 0x60 DUP6 DUP8 SUB SLT ISZERO PUSH2 0x674 JUMPI PUSH2 0x673 PUSH2 0x52A JUMP JUMPDEST JUMPDEST PUSH0 PUSH2 0x681 DUP8 DUP3 DUP9 ADD PUSH2 0x551 JUMP JUMPDEST SWAP5 POP POP PUSH1 0x20 PUSH2 0x692 DUP8 DUP3 DUP9 ADD PUSH2 0x5E7 JUMP JUMPDEST SWAP4 POP POP PUSH1 0x40 DUP6 ADD CALLDATALOAD PUSH8 0xFFFFFFFFFFFFFFFF DUP2 GT ISZERO PUSH2 0x6B3 JUMPI PUSH2 0x6B2 PUSH2 0x52E JUMP JUMPDEST JUMPDEST PUSH2 0x6BF DUP8 DUP3 DUP9 ADD PUSH2 0x607 JUMP JUMPDEST SWAP3 POP SWAP3 POP POP SWAP3 SWAP6 SWAP2 SWAP5 POP SWAP3 POP JUMP JUMPDEST PUSH0 DUP2 SWAP1 POP SWAP2 SWAP1 POP JUMP JUMPDEST PUSH2 0x6DF DUP2 PUSH2 0x6CD JUMP JUMPDEST DUP2 EQ PUSH2 0x6E9 JUMPI PUSH0 PUSH0 REVERT JUMPDEST POP JUMP JUMPDEST PUSH0 DUP2 CALLDATALOAD SWAP1 POP PUSH2 0x6FA DUP2 PUSH2 0x6D6 JUMP JUMPDEST SWAP3 SWAP2 POP POP JUMP JUMPDEST PUSH0 PUSH0 PUSH1 0x40 DUP4 DUP6 SUB SLT ISZERO PUSH2 0x716 JUMPI PUSH2 0x715 PUSH2 0x52A JUMP JUMPDEST JUMPDEST PUSH0 PUSH2 0x723 DUP6 DUP3 DUP7 ADD PUSH2 0x551 JUMP JUMPDEST SWAP3 POP POP PUSH1 0x20 PUSH2 0x734 DUP6 DUP3 DUP7 ADD PUSH2 0x6EC JUMP JUMPDEST SWAP2 POP POP SWAP3 POP SWAP3 SWAP1 POP JUMP JUMPDEST PUSH0 PUSH1 0x20 DUP3 DUP5 SUB SLT ISZERO PUSH2 0x753 JUMPI PUSH2 0x752 PUSH2 0x52A JUMP JUMPDEST JUMPDEST PUSH0 PUSH2 0x760 DUP5 DUP3 DUP6 ADD PUSH2 0x551 JUMP JUMPDEST SWAP2 POP POP SWAP3 SWAP2 POP POP JUMP JUMPDEST PUSH2 0x772 DUP2 PUSH2 0x532 JUMP JUMPDEST DUP3 MSTORE POP POP JUMP JUMPDEST PUSH2 0x781 DUP2 PUSH2 0x6CD JUMP JUMPDEST DUP3 MSTORE POP POP JUMP JUMPDEST PUSH32 0x4E487B7100000000000000000000000000000000000000000000000000000000 PUSH0 MSTORE PUSH1 0x21 PUSH1 0x4 MSTORE PUSH1 0x24 PUSH0 REVERT JUMPDEST PUSH1 0x3 DUP2 LT PUSH2 0x7C5 JUMPI PUSH2 0x7C4 PUSH2 0x787 JUMP JUMPDEST JUMPDEST POP JUMP JUMPDEST PUSH0 DUP2 SWAP1 POP PUSH2 0x7D5 DUP3 PUSH2 0x7B4 JUMP JUMPDEST SWAP2 SWAP1 POP JUMP JUMPDEST PUSH0 PUSH2 0x7E4 DUP3 PUSH2 0x7C8 JUMP JUMPDEST SWAP1 POP SWAP2 SWAP1 POP JUMP JUMPDEST PUSH2 0x7F4 DUP2 PUSH2 0x7DA JUMP JUMPDEST DUP3 MSTORE POP POP JUMP JUMPDEST PUSH1 0xC0 DUP3 ADD PUSH0 DUP3 ADD MLOAD PUSH2 0x80E PUSH0 DUP6 ADD DUP3 PUSH2 0x769 JUMP JUMPDEST POP PUSH1 0x20 DUP3 ADD MLOAD PUSH2 0x821 PUSH1 0x20 DUP6 ADD DUP3 PUSH2 0x778 JUMP JUMPDEST POP PUSH1 0x40 DUP3 ADD MLOAD PUSH2 0x834 PUSH1 0x40 DUP6 ADD DUP3 PUSH2 0x7EB JUMP JUMPDEST POP PUSH1 0x60 DUP3 ADD MLOAD PUSH2 0x847 PUSH1 0x60 DUP6 ADD DUP3 PUSH2 0x778 JUMP JUMPDEST POP PUSH1 0x80 DUP3 ADD MLOAD PUSH2 0x85A PUSH1 0x80 DUP6 ADD DUP3 PUSH2 0x778 JUMP JUMPDEST POP PUSH1 0xA0 DUP3 ADD MLOAD PUSH2 0x86D PUSH1 0xA0 DUP6 ADD DUP3 PUSH2 0x778 JUMP JUMPDEST POP POP POP POP JUMP JUMPDEST PUSH0 PUSH1 0xC0 DUP3 ADD SWAP1 POP PUSH2 0x886 PUSH0 DUP4 ADD DUP5 PUSH2 0x7FA JUMP JUMPDEST SWAP3 SWAP2 POP POP JUMP JUMPDEST PUSH2 0x895 DUP2 PUSH2 0x532 JUMP JUMPDEST DUP3 MSTORE POP POP JUMP JUMPDEST PUSH2 0x8A4 DUP2 PUSH2 0x6CD JUMP JUMPDEST DUP3 MSTORE POP POP JUMP JUMPDEST PUSH2 0x8B3 DUP2 PUSH2 0x7DA JUMP JUMPDEST DUP3 MSTORE POP POP JUMP JUMPDEST PUSH0 PUSH1 0xC0 DUP3 ADD SWAP1 POP PUSH2 0x8CC PUSH0 DUP4 ADD DUP10 PUSH2 0x88C JUMP JUMPDEST PUSH2 0x8D9 PUSH1 0x20 DUP4 ADD DUP9 PUSH2 0x89B JUMP JUMPDEST PUSH2 0x8E6 PUSH1 0x40 DUP4 ADD DUP8 PUSH2 0x8AA JUMP JUMPDEST PUSH2 0x8F3 PUSH1 0x60 DUP4 ADD DUP7 PUSH2 0x89B JUMP JUMPDEST PUSH2 0x900 PUSH1 0x80 DUP4 ADD DUP6 PUSH2 0x89B JUMP JUMPDEST PUSH2 0x90D PUSH1 0xA0 DUP4 ADD DUP5 PUSH2 0x89B JUMP JUMPDEST SWAP8 SWAP7 POP POP POP POP POP POP POP JUMP JUMPDEST PUSH0 DUP3 DUP3 MSTORE PUSH1 0x20 DUP3 ADD SWAP1 POP SWAP3 SWAP2 POP POP JUMP JUMPDEST PUSH32 0x446576696365206E6F7420666F756E6400000000000000000000000000000000 PUSH0 DUP3 ADD MSTORE POP JUMP JUMPDEST PUSH0 PUSH2 0x95C PUSH1 0x10 DUP4 PUSH2 0x918 JUMP JUMPDEST SWAP2 POP PUSH2 0x967 DUP3 PUSH2 0x928 JUMP JUMPDEST PUSH1 0x20 DUP3 ADD SWAP1 POP SWAP2 SWAP1 POP JUMP JUMPDEST PUSH0 PUSH1 0x20 DUP3 ADD SWAP1 POP DUP2 DUP2 SUB PUSH0 DUP4 ADD MSTORE PUSH2 0x989 DUP2 PUSH2 0x950 JUMP JUMPDEST SWAP1 POP SWAP2 SWAP1 POP JUMP JUMPDEST PUSH0 PUSH1 0x20 DUP3 ADD SWAP1 POP PUSH2 0x9A3 PUSH0 DUP4 ADD DUP5 PUSH2 0x8AA JUMP JUMPDEST SWAP3 SWAP2 POP POP JUMP JUMPDEST PUSH32 0x4E487B7100000000000000000000000000000000000000000000000000000000 PUSH0 MSTORE PUSH1 0x11 PUSH1 0x4 MSTORE PUSH1 0x24 PUSH0 REVERT JUMPDEST PUSH0 PUSH2 0x9E0 DUP3 PUSH2 0x6CD JUMP JUMPDEST SWAP2 POP PUSH32 0xFFFFFFFFFFFFFFFFFFFFFFFFFFFFFFFFFFFFFFFFFFFFFFFFFFFFFFFFFFFFFFFF DUP3 SUB PUSH2 0xA12 JUMPI PUSH2 0xA11 PUSH2 0x9A9 JUMP JUMPDEST JUMPDEST PUSH1 0x1 DUP3 ADD SWAP1 POP SWAP2 SWAP1 POP JUMP JUMPDEST PUSH0 PUSH2 0xA27 DUP3 PUSH2 0x6CD JUMP JUMPDEST SWAP2 POP PUSH0 DUP3 SUB PUSH2 0xA39 JUMPI PUSH2 0xA38 PUSH2 0x9A9 JUMP JUMPDEST JUMPDEST PUSH1 0x1 DUP3 SUB SWAP1 POP SWAP2 SWAP1 POP JUMP JUMPDEST PUSH2 0xA4D DUP2 PUSH2 0x5C6 JUMP JUMPDEST DUP3 MSTORE POP POP JUMP JUMPDEST DUP3 DUP2 DUP4 CALLDATACOPY PUSH0 DUP4 DUP4 ADD MSTORE POP POP POP JUMP JUMPDEST PUSH0 PUSH1 0x1F NOT PUSH1 0x1F DUP4 ADD AND SWAP1 POP SWAP2 SWAP1 POP JUMP JUMPDEST PUSH0 PUSH2 0xA7C DUP4 DUP6 PUSH2 0x918 JUMP JUMPDEST SWAP4 POP PUSH2 0xA89 DUP4 DUP6 DUP5 PUSH2 0xA53 JUMP JUMPDEST PUSH2 0xA92 DUP4 PUSH2 0xA61 JUMP JUMPDEST DUP5 ADD SWAP1 POP SWAP4 SWAP3 POP POP POP JUMP JUMPDEST PUSH0 PUSH1 0x40 DUP3 ADD SWAP1 POP PUSH2 0xAB0 PUSH0 DUP4 ADD DUP7 PUSH2 0xA44 JUMP JUMPDEST DUP2 DUP2 SUB PUSH1 0x20 DUP4 ADD MSTORE PUSH2 0xAC3 DUP2 DUP5 DUP7 PUSH2 0xA71 JUMP JUMPDEST SWAP1 POP SWAP5 SWAP4 POP POP POP POP JUMP JUMPDEST PUSH32 0x44657669636520616C7265616479207265676973746572656400000000000000 PUSH0 DUP3 ADD MSTORE POP JUMP JUMPDEST PUSH0 PUSH2 0xB01 PUSH1 0x19 DUP4 PUSH2 0x918 JUMP JUMPDEST SWAP2 POP PUSH2 0xB0C DUP3 PUSH2 0xACD JUMP JUMPDEST PUSH1 0x20 DUP3 ADD SWAP1 POP SWAP2 SWAP1 POP JUMP JUMPDEST PUSH0 PUSH1 0x20 DUP3 ADD SWAP1 POP DUP2 DUP2 SUB PUSH0 DUP4 ADD MSTORE PUSH2 0xB2E DUP2 PUSH2 0xAF5 JUMP JUMPDEST SWAP1 POP SWAP2 SWAP1 POP JUMP JUMPDEST PUSH0 PUSH1 0x20 DUP3 ADD SWAP1 POP PUSH2 0xB48 PUSH0 DUP4 ADD DUP5 PUSH2 0x89B JUMP JUMPDEST SWAP3 SWAP2 POP POP JUMP INVALID LOG2 PUSH5 0x6970667358 0x22 SLT KECCAK256 SAR SLT 0xC5 SWAP1 SGT 0xAA 0xD2 INVALID 0x1F DUP7 0xC7 DUP12 DUP12 GT SHR BYTE SWAP16 0xEF PUSH31 0x9325D13C21FAD7D92EC8E2718964736F6C634300081C003300000000000000 "},"methodIdentifiers":{"devices(bytes32)":"c5c400de","getDevice(bytes32)":"6a7f745e","logAuth(bytes32,bool,string)":"49e4cfdd","registerDevice(bytes32,uint256)":"5fc119cd","updateStatus(bytes32,uint8)":"054372ed"}}}}}